{
  "contractName": "Escrow",
  "abi": [
    {
      "anonymous": false,
      "inputs": [
        {
          "indexed": true,
          "internalType": "uint256",
          "name": "id",
          "type": "uint256"
        },
        {
          "indexed": true,
          "internalType": "address",
          "name": "owner",
          "type": "address"
        },
        {
          "indexed": true,
          "internalType": "address",
          "name": "beneficiary",
          "type": "address"
        },
        {
          "indexed": false,
          "internalType": "uint256",
          "name": "fees",
          "type": "uint256"
        },
        {
          "indexed": false,
          "internalType": "bool",
          "name": "isCompleted",
          "type": "bool"
        },
        {
          "indexed": false,
          "internalType": "bool",
          "name": "isVerified",
          "type": "bool"
        }
      ],
      "name": "ContractSuccesfull",
      "type": "event"
    },
    {
      "inputs": [],
      "name": "contractsCount",
      "outputs": [
        {
          "internalType": "uint256",
          "name": "",
          "type": "uint256"
        }
      ],
      "stateMutability": "view",
      "type": "function",
      "constant": true
    },
    {
      "inputs": [
        {
          "internalType": "address",
          "name": "beneficiary",
          "type": "address"
        },
        {
          "internalType": "uint256",
          "name": "amt",
          "type": "uint256"
        }
      ],
      "name": "createContract",
      "outputs": [],
      "stateMutability": "payable",
      "type": "function",
      "payable": true
    },
    {
      "inputs": [
        {
          "internalType": "uint256",
          "name": "id",
          "type": "uint256"
        }
      ],
      "name": "viewContract",
      "outputs": [
        {
          "internalType": "address",
          "name": "owner",
          "type": "address"
        },
        {
          "internalType": "address",
          "name": "beneficiary",
          "type": "address"
        },
        {
          "internalType": "uint256",
          "name": "fees",
          "type": "uint256"
        },
        {
          "internalType": "bool",
          "name": "isCompleted",
          "type": "bool"
        },
        {
          "internalType": "bool",
          "name": "isVerified",
          "type": "bool"
        }
      ],
      "stateMutability": "view",
      "type": "function",
      "constant": true
    },
    {
      "inputs": [
        {
          "internalType": "uint256",
          "name": "id",
          "type": "uint256"
        }
      ],
      "name": "completeContract",
      "outputs": [],
      "stateMutability": "nonpayable",
      "type": "function"
    },
    {
      "inputs": [
        {
          "internalType": "uint256",
          "name": "id",
          "type": "uint256"
        }
      ],
      "name": "verifyContract",
      "outputs": [],
      "stateMutability": "nonpayable",
      "type": "function"
    },
    {
      "inputs": [
        {
          "internalType": "uint256",
          "name": "id",
          "type": "uint256"
        }
      ],
      "name": "demandFees",
      "outputs": [],
      "stateMutability": "nonpayable",
      "type": "function"
    }
  ],
  "bytecode": "0x60806040526000805534801561001457600080fd5b50611325806100246000396000f3fe6080604052600436106100555760003560e01c80632005d1871461005a57806358ee94cd146100765780636579d5b81461009f578063c4fecdb6146100c8578063d90d0e5d146100f3578063dfff29201461011c575b600080fd5b610074600480360381019061006f9190610c4b565b61015d565b005b34801561008257600080fd5b5061009d60048036038101906100989190610c8b565b610462565b005b3480156100ab57600080fd5b506100c660048036038101906100c19190610c8b565b61059e565b005b3480156100d457600080fd5b506100dd610744565b6040516100ea9190610cc7565b60405180910390f35b3480156100ff57600080fd5b5061011a60048036038101906101159190610c8b565b61074a565b005b34801561012857600080fd5b50610143600480360381019061013e9190610c8b565b6109bf565b604051610154959493929190610d0c565b60405180910390f35b600073ffffffffffffffffffffffffffffffffffffffff168273ffffffffffffffffffffffffffffffffffffffff1614156101cd576040517f08c379a00000000000000000000000000000000000000000000000000000000081526004016101c490610dbc565b60405180910390fd5b60008111610210576040517f08c379a000000000000000000000000000000000000000000000000000000000815260040161020790610e28565b60405180910390fd5b34811115610253576040517f08c379a000000000000000000000000000000000000000000000000000000000815260040161024a90610eba565b60405180910390fd5b60008081548092919061026590610f09565b91905055506040518060c0016040528060005481526020013373ffffffffffffffffffffffffffffffffffffffff1681526020018373ffffffffffffffffffffffffffffffffffffffff1681526020018281526020016000151581526020016000151581525060016000805481526020019081526020016000206000820151816000015560208201518160010160006101000a81548173ffffffffffffffffffffffffffffffffffffffff021916908373ffffffffffffffffffffffffffffffffffffffff16021790555060408201518160020160006101000a81548173ffffffffffffffffffffffffffffffffffffffff021916908373ffffffffffffffffffffffffffffffffffffffff1602179055506060820151816003015560808201518160040160006101000a81548160ff02191690831515021790555060a08201518160040160016101000a81548160ff0219169083151502179055509050506001600260008054815260200190815260200160002060006101000a81548160ff0219169083151502179055508173ffffffffffffffffffffffffffffffffffffffff163373ffffffffffffffffffffffffffffffffffffffff166000547fd629cb360c94cafa402bd96a4d0c9aa5e8f15fe1d65a4c9075adf5a1c2c9b0d48460008060405161045693929190610f52565b60405180910390a45050565b6001600082815260200190815260200160002060020160009054906101000a900473ffffffffffffffffffffffffffffffffffffffff1673ffffffffffffffffffffffffffffffffffffffff163373ffffffffffffffffffffffffffffffffffffffff1614610506576040517f08c379a00000000000000000000000000000000000000000000000000000000081526004016104fd90610ffb565b60405180910390fd5b600115156002600083815260200190815260200160002060009054906101000a900460ff1615151461056d576040517f08c379a000000000000000000000000000000000000000000000000000000000815260040161056490611067565b60405180910390fd5b600180600083815260200190815260200160002060040160006101000a81548160ff02191690831515021790555050565b6001600082815260200190815260200160002060010160009054906101000a900473ffffffffffffffffffffffffffffffffffffffff1673ffffffffffffffffffffffffffffffffffffffff163373ffffffffffffffffffffffffffffffffffffffff1614610642576040517f08c379a0000000000000000000000000000000000000000000000000000000008152600401610639906110d3565b60405180910390fd5b600115156002600083815260200190815260200160002060009054906101000a900460ff161515146106a9576040517f08c379a00000000000000000000000000000000000000000000000000000000081526004016106a090611067565b60405180910390fd5b600115156001600083815260200190815260200160002060040160009054906101000a900460ff16151514610713576040517f08c379a000000000000000000000000000000000000000000000000000000000815260040161070a90611165565b60405180910390fd5b600180600083815260200190815260200160002060040160016101000a81548160ff02191690831515021790555050565b60005481565b6001600082815260200190815260200160002060020160009054906101000a900473ffffffffffffffffffffffffffffffffffffffff1673ffffffffffffffffffffffffffffffffffffffff163373ffffffffffffffffffffffffffffffffffffffff16146107ee576040517f08c379a00000000000000000000000000000000000000000000000000000000081526004016107e5906111d1565b60405180910390fd5b600115156002600083815260200190815260200160002060009054906101000a900460ff16151514610855576040517f08c379a000000000000000000000000000000000000000000000000000000000815260040161084c90611067565b60405180910390fd5b600115156001600083815260200190815260200160002060040160009054906101000a900460ff161515146108bf576040517f08c379a00000000000000000000000000000000000000000000000000000000081526004016108b690611165565b60405180910390fd5b600115156001600083815260200190815260200160002060040160019054906101000a900460ff16151514610929576040517f08c379a000000000000000000000000000000000000000000000000000000000815260040161092090611263565b60405180910390fd5b6001600082815260200190815260200160002060020160009054906101000a900473ffffffffffffffffffffffffffffffffffffffff1673ffffffffffffffffffffffffffffffffffffffff166108fc60016000848152602001908152602001600020600301549081150290604051600060405180830381858888f193505050501580156109bb573d6000803e3d6000fd5b5050565b6000806000806000600115156002600088815260200190815260200160002060009054906101000a900460ff16151514610a2e576040517f08c379a0000000000000000000000000000000000000000000000000000000008152600401610a2590611067565b60405180910390fd5b3373ffffffffffffffffffffffffffffffffffffffff166001600088815260200190815260200160002060010160009054906101000a900473ffffffffffffffffffffffffffffffffffffffff1673ffffffffffffffffffffffffffffffffffffffff1614610ad2576040517f08c379a0000000000000000000000000000000000000000000000000000000008152600401610ac9906112cf565b60405180910390fd5b6001600087815260200190815260200160002060010160009054906101000a900473ffffffffffffffffffffffffffffffffffffffff166001600088815260200190815260200160002060020160009054906101000a900473ffffffffffffffffffffffffffffffffffffffff166001600089815260200190815260200160002060030154600160008a815260200190815260200160002060040160009054906101000a900460ff16600160008b815260200190815260200160002060040160019054906101000a900460ff169450945094509450945091939590929450565b600080fd5b600073ffffffffffffffffffffffffffffffffffffffff82169050919050565b6000610be282610bb7565b9050919050565b610bf281610bd7565b8114610bfd57600080fd5b50565b600081359050610c0f81610be9565b92915050565b6000819050919050565b610c2881610c15565b8114610c3357600080fd5b50565b600081359050610c4581610c1f565b92915050565b60008060408385031215610c6257610c61610bb2565b5b6000610c7085828601610c00565b9250506020610c8185828601610c36565b9150509250929050565b600060208284031215610ca157610ca0610bb2565b5b6000610caf84828501610c36565b91505092915050565b610cc181610c15565b82525050565b6000602082019050610cdc6000830184610cb8565b92915050565b610ceb81610bd7565b82525050565b60008115159050919050565b610d0681610cf1565b82525050565b600060a082019050610d216000830188610ce2565b610d2e6020830187610ce2565b610d3b6040830186610cb8565b610d486060830185610cfd565b610d556080830184610cfd565b9695505050505050565b600082825260208201905092915050565b7f62656e65666963696172792063616e6e6f742062652030000000000000000000600082015250565b6000610da6601783610d5f565b9150610db182610d70565b602082019050919050565b60006020820190508181036000830152610dd581610d99565b9050919050565b7f616d6f756e74206d7573742062652067726561746572207468616e2030000000600082015250565b6000610e12601d83610d5f565b9150610e1d82610ddc565b602082019050919050565b60006020820190508181036000830152610e4181610e05565b9050919050565b7f616d6f756e74206d75737420626520657175616c206f72206c6573737320746860008201527f656e20746f206d73672e76616c75650000000000000000000000000000000000602082015250565b6000610ea4602f83610d5f565b9150610eaf82610e48565b604082019050919050565b60006020820190508181036000830152610ed381610e97565b9050919050565b7f4e487b7100000000000000000000000000000000000000000000000000000000600052601160045260246000fd5b6000610f1482610c15565b91507fffffffffffffffffffffffffffffffffffffffffffffffffffffffffffffffff821415610f4757610f46610eda565b5b600182019050919050565b6000606082019050610f676000830186610cb8565b610f746020830185610cfd565b610f816040830184610cfd565b949350505050565b7f6f6e6c792062656e65666963696172792063616e20636f6d706c65746520746860008201527f6520636f6e747261637400000000000000000000000000000000000000000000602082015250565b6000610fe5602a83610d5f565b9150610ff082610f89565b604082019050919050565b6000602082019050818103600083015261101481610fd8565b9050919050565b7f636f6e7472616374206973206e6f7420617661696c61626c6500000000000000600082015250565b6000611051601983610d5f565b915061105c8261101b565b602082019050919050565b6000602082019050818103600083015261108081611044565b9050919050565b7f6f6e6c79206f776e65722063616e2072656c65617365207061796d656e740000600082015250565b60006110bd601e83610d5f565b91506110c882611087565b602082019050919050565b600060208201905081810360008301526110ec816110b0565b9050919050565b7f636f6e7472616374206973206e6f7420636f6d706c657465642062792074686560008201527f2062656e65666963696172790000000000000000000000000000000000000000602082015250565b600061114f602c83610d5f565b915061115a826110f3565b604082019050919050565b6000602082019050818103600083015261117e81611142565b9050919050565b7f6f6e6c792062656e65666963696172792063616e2064656d616e642066656573600082015250565b60006111bb602083610d5f565b91506111c682611185565b602082019050919050565b600060208201905081810360008301526111ea816111ae565b9050919050565b7f636f6e7472616374206973206e6f74207665726966696564206279207468652060008201527f6f776e6572000000000000000000000000000000000000000000000000000000602082015250565b600061124d602583610d5f565b9150611258826111f1565b604082019050919050565b6000602082019050818103600083015261127c81611240565b9050919050565b7f596f7520617265206e6f7420746865206f776e65720000000000000000000000600082015250565b60006112b9601583610d5f565b91506112c482611283565b602082019050919050565b600060208201905081810360008301526112e8816112ac565b905091905056fea2646970667358221220281b0347c5b7534176386c287b286118079eb4c762b2269dbb6f70d8811ed19c64736f6c634300080b0033",
  "immutableReferences": {},
  "source": "// SPDX-License-Identifier: MIT\r\npragma solidity >=0.4.22 <0.9.0;\r\n\r\ncontract Escrow {\r\n    uint256 public contractsCount = 0;\r\n\r\n    struct Contract {\r\n        uint256 id;\r\n        address owner;\r\n        address beneficiary;\r\n        uint256 fees;\r\n        bool isCompleted;\r\n        bool isVerified;\r\n    }\r\n\r\n    mapping(uint256 => Contract) private contracts;\r\n    mapping(uint256 => bool) private contractsAvailability;\r\n\r\n    event ContractSuccesfull(\r\n        uint256 indexed id,\r\n        address indexed owner,\r\n        address indexed beneficiary,\r\n        uint256 fees,\r\n        bool isCompleted,\r\n        bool isVerified\r\n    );\r\n\r\n    function createContract(address beneficiary, uint256 amt) external payable {\r\n        require(beneficiary != address(0), \"beneficiary cannot be 0\");\r\n        require(amt > 0, \"amount must be greater than 0\");\r\n        require(\r\n            amt <= msg.value,\r\n            \"amount must be equal or lesss then to msg.value\"\r\n        );\r\n\r\n        // amt = amt * 10**18;\r\n        contractsCount++;\r\n        contracts[contractsCount] = Contract(\r\n            contractsCount,\r\n            msg.sender,\r\n            beneficiary,\r\n            amt,\r\n            false,\r\n            false\r\n        );\r\n\r\n        contractsAvailability[contractsCount] = true;\r\n\r\n        emit ContractSuccesfull(\r\n            contractsCount,\r\n            msg.sender,\r\n            beneficiary,\r\n            amt,\r\n            false,\r\n            false\r\n        );\r\n    }\r\n\r\n    function viewContract(uint256 id)\r\n        external\r\n        view\r\n        returns (\r\n            address owner,\r\n            address beneficiary,\r\n            uint256 fees,\r\n            bool isCompleted,\r\n            bool isVerified\r\n        )\r\n    {\r\n        require(contractsAvailability[id] == true, \"contract is not available\");\r\n        require(contracts[id].owner == msg.sender, \"You are not the owner\");\r\n        return (\r\n            contracts[id].owner,\r\n            contracts[id].beneficiary,\r\n            contracts[id].fees,\r\n            contracts[id].isCompleted,\r\n            contracts[id].isVerified\r\n        );\r\n    }\r\n\r\n    function completeContract(uint256 id) external {\r\n        require(\r\n            msg.sender == contracts[id].beneficiary,\r\n            \"only beneficiary can complete the contract\"\r\n        );\r\n        require(contractsAvailability[id] == true, \"contract is not available\");\r\n\r\n        contracts[id].isCompleted = true;\r\n    }\r\n\r\n    function verifyContract(uint256 id) external {\r\n        require(\r\n            msg.sender == contracts[id].owner,\r\n            \"only owner can release payment\"\r\n        );\r\n        require(contractsAvailability[id] == true, \"contract is not available\");\r\n        require(\r\n            contracts[id].isCompleted == true,\r\n            \"contract is not completed by the beneficiary\"\r\n        );\r\n\r\n        contracts[id].isVerified = true;\r\n    }\r\n\r\n    function demandFees(uint256 id) external {\r\n        require(\r\n            msg.sender == contracts[id].beneficiary,\r\n            \"only beneficiary can demand fees\"\r\n        );\r\n\r\n        require(contractsAvailability[id] == true, \"contract is not available\");\r\n\r\n        require(\r\n            contracts[id].isCompleted == true,\r\n            \"contract is not completed by the beneficiary\"\r\n        );\r\n\r\n        require(\r\n            contracts[id].isVerified == true,\r\n            \"contract is not verified by the owner\"\r\n        );\r\n\r\n        payable(contracts[id].beneficiary).transfer(contracts[id].fees);\r\n    }\r\n}\r\n",
  "sourcePath": "C:\\Users\\Suman\\Desktop\\Blockchain\\EscrowContract\\EscrowContract\\contracts\\Escrow.sol",
  "compiler": {
    "name": "solc",
    "version": "0.8.11+commit.d7f03943.Emscripten.clang"
  },
  "schemaVersion": "3.4.5",
  "updatedAt": "2022-03-24T07:57:56.460Z",
  "networkType": "ethereum",
  "devdoc": {
    "kind": "dev",
    "methods": {},
    "version": 1
  },
  "userdoc": {
    "kind": "user",
    "methods": {},
    "version": 1
  }
}