{
  "contractName": "Escrow",
  "abi": [
    {
      "anonymous": false,
      "inputs": [
        {
          "indexed": true,
          "internalType": "uint256",
          "name": "id",
          "type": "uint256"
        },
        {
          "indexed": true,
          "internalType": "address",
          "name": "owner",
          "type": "address"
        },
        {
          "indexed": true,
          "internalType": "address",
          "name": "beneficiary",
          "type": "address"
        },
        {
          "indexed": false,
          "internalType": "uint256",
          "name": "fees",
          "type": "uint256"
        },
        {
          "indexed": false,
          "internalType": "bool",
          "name": "isCompleted",
          "type": "bool"
        },
        {
          "indexed": false,
          "internalType": "bool",
          "name": "isVerified",
          "type": "bool"
        }
      ],
      "name": "ContractSuccesfull",
      "type": "event"
    },
    {
      "inputs": [],
      "name": "contractsCount",
      "outputs": [
        {
          "internalType": "uint256",
          "name": "",
          "type": "uint256"
        }
      ],
      "stateMutability": "view",
      "type": "function",
      "constant": true
    },
    {
      "inputs": [
        {
          "internalType": "address",
          "name": "beneficiary",
          "type": "address"
        },
        {
          "internalType": "uint256",
          "name": "amt",
          "type": "uint256"
        }
      ],
      "name": "createContract",
      "outputs": [],
      "stateMutability": "payable",
      "type": "function",
      "payable": true
    },
    {
      "inputs": [
        {
          "internalType": "uint256",
          "name": "id",
          "type": "uint256"
        }
      ],
      "name": "completeContract",
      "outputs": [],
      "stateMutability": "nonpayable",
      "type": "function"
    },
    {
      "inputs": [
        {
          "internalType": "uint256",
          "name": "id",
          "type": "uint256"
        }
      ],
      "name": "verifyContract",
      "outputs": [],
      "stateMutability": "nonpayable",
      "type": "function"
    },
    {
      "inputs": [
        {
          "internalType": "uint256",
          "name": "id",
          "type": "uint256"
        }
      ],
      "name": "demandFees",
      "outputs": [],
      "stateMutability": "nonpayable",
      "type": "function"
    }
  ],
  "bytecode": "0x60806040526000805534801561001457600080fd5b5061109a806100246000396000f3fe60806040526004361061004a5760003560e01c80632005d1871461004f57806358ee94cd1461006b5780636579d5b814610094578063c4fecdb6146100bd578063d90d0e5d146100e8575b600080fd5b61006960048036038101906100649190610a34565b610111565b005b34801561007757600080fd5b50610092600480360381019061008d9190610a74565b61042b565b005b3480156100a057600080fd5b506100bb60048036038101906100b69190610a74565b610567565b005b3480156100c957600080fd5b506100d261070d565b6040516100df9190610ab0565b60405180910390f35b3480156100f457600080fd5b5061010f600480360381019061010a9190610a74565b610713565b005b600073ffffffffffffffffffffffffffffffffffffffff168273ffffffffffffffffffffffffffffffffffffffff161415610181576040517f08c379a000000000000000000000000000000000000000000000000000000000815260040161017890610b28565b60405180910390fd5b600081116101c4576040517f08c379a00000000000000000000000000000000000000000000000000000000081526004016101bb90610b94565b60405180910390fd5b348114610206576040517f08c379a00000000000000000000000000000000000000000000000000000000081526004016101fd90610c26565b60405180910390fd5b670de0b6b3a76400008161021a9190610c75565b905060008081548092919061022e90610ccf565b91905055506040518060c0016040528060005481526020013373ffffffffffffffffffffffffffffffffffffffff1681526020018373ffffffffffffffffffffffffffffffffffffffff1681526020018281526020016000151581526020016000151581525060016000805481526020019081526020016000206000820151816000015560208201518160010160006101000a81548173ffffffffffffffffffffffffffffffffffffffff021916908373ffffffffffffffffffffffffffffffffffffffff16021790555060408201518160020160006101000a81548173ffffffffffffffffffffffffffffffffffffffff021916908373ffffffffffffffffffffffffffffffffffffffff1602179055506060820151816003015560808201518160040160006101000a81548160ff02191690831515021790555060a08201518160040160016101000a81548160ff0219169083151502179055509050506001600260008054815260200190815260200160002060006101000a81548160ff0219169083151502179055508173ffffffffffffffffffffffffffffffffffffffff163373ffffffffffffffffffffffffffffffffffffffff166000547fd629cb360c94cafa402bd96a4d0c9aa5e8f15fe1d65a4c9075adf5a1c2c9b0d48460008060405161041f93929190610d33565b60405180910390a45050565b6001600082815260200190815260200160002060020160009054906101000a900473ffffffffffffffffffffffffffffffffffffffff1673ffffffffffffffffffffffffffffffffffffffff163373ffffffffffffffffffffffffffffffffffffffff16146104cf576040517f08c379a00000000000000000000000000000000000000000000000000000000081526004016104c690610ddc565b60405180910390fd5b600115156002600083815260200190815260200160002060009054906101000a900460ff16151514610536576040517f08c379a000000000000000000000000000000000000000000000000000000000815260040161052d90610e48565b60405180910390fd5b600180600083815260200190815260200160002060040160006101000a81548160ff02191690831515021790555050565b6001600082815260200190815260200160002060010160009054906101000a900473ffffffffffffffffffffffffffffffffffffffff1673ffffffffffffffffffffffffffffffffffffffff163373ffffffffffffffffffffffffffffffffffffffff161461060b576040517f08c379a000000000000000000000000000000000000000000000000000000000815260040161060290610eb4565b60405180910390fd5b600115156002600083815260200190815260200160002060009054906101000a900460ff16151514610672576040517f08c379a000000000000000000000000000000000000000000000000000000000815260040161066990610e48565b60405180910390fd5b600115156001600083815260200190815260200160002060040160009054906101000a900460ff161515146106dc576040517f08c379a00000000000000000000000000000000000000000000000000000000081526004016106d390610f46565b60405180910390fd5b600180600083815260200190815260200160002060040160016101000a81548160ff02191690831515021790555050565b60005481565b6001600082815260200190815260200160002060020160009054906101000a900473ffffffffffffffffffffffffffffffffffffffff1673ffffffffffffffffffffffffffffffffffffffff163373ffffffffffffffffffffffffffffffffffffffff16146107b7576040517f08c379a00000000000000000000000000000000000000000000000000000000081526004016107ae90610fb2565b60405180910390fd5b600115156002600083815260200190815260200160002060009054906101000a900460ff1615151461081e576040517f08c379a000000000000000000000000000000000000000000000000000000000815260040161081590610e48565b60405180910390fd5b600115156001600083815260200190815260200160002060040160009054906101000a900460ff16151514610888576040517f08c379a000000000000000000000000000000000000000000000000000000000815260040161087f90610f46565b60405180910390fd5b600115156001600083815260200190815260200160002060040160019054906101000a900460ff161515146108f2576040517f08c379a00000000000000000000000000000000000000000000000000000000081526004016108e990611044565b60405180910390fd5b6001600082815260200190815260200160002060020160009054906101000a900473ffffffffffffffffffffffffffffffffffffffff1673ffffffffffffffffffffffffffffffffffffffff166108fc670de0b6b3a7640000600160008581526020019081526020016000206003015461096c9190610c75565b9081150290604051600060405180830381858888f19350505050158015610997573d6000803e3d6000fd5b5050565b600080fd5b600073ffffffffffffffffffffffffffffffffffffffff82169050919050565b60006109cb826109a0565b9050919050565b6109db816109c0565b81146109e657600080fd5b50565b6000813590506109f8816109d2565b92915050565b6000819050919050565b610a11816109fe565b8114610a1c57600080fd5b50565b600081359050610a2e81610a08565b92915050565b60008060408385031215610a4b57610a4a61099b565b5b6000610a59858286016109e9565b9250506020610a6a85828601610a1f565b9150509250929050565b600060208284031215610a8a57610a8961099b565b5b6000610a9884828501610a1f565b91505092915050565b610aaa816109fe565b82525050565b6000602082019050610ac56000830184610aa1565b92915050565b600082825260208201905092915050565b7f62656e65666963696172792063616e6e6f742062652030000000000000000000600082015250565b6000610b12601783610acb565b9150610b1d82610adc565b602082019050919050565b60006020820190508181036000830152610b4181610b05565b9050919050565b7f616d6f756e74206d7573742062652067726561746572207468616e2030000000600082015250565b6000610b7e601d83610acb565b9150610b8982610b48565b602082019050919050565b60006020820190508181036000830152610bad81610b71565b9050919050565b7f616d6f756e74206d75737420626520657175616c20746f206d73672e76616c7560008201527f6500000000000000000000000000000000000000000000000000000000000000602082015250565b6000610c10602183610acb565b9150610c1b82610bb4565b604082019050919050565b60006020820190508181036000830152610c3f81610c03565b9050919050565b7f4e487b7100000000000000000000000000000000000000000000000000000000600052601160045260246000fd5b6000610c80826109fe565b9150610c8b836109fe565b9250817fffffffffffffffffffffffffffffffffffffffffffffffffffffffffffffffff0483118215151615610cc457610cc3610c46565b5b828202905092915050565b6000610cda826109fe565b91507fffffffffffffffffffffffffffffffffffffffffffffffffffffffffffffffff821415610d0d57610d0c610c46565b5b600182019050919050565b60008115159050919050565b610d2d81610d18565b82525050565b6000606082019050610d486000830186610aa1565b610d556020830185610d24565b610d626040830184610d24565b949350505050565b7f6f6e6c792062656e65666963696172792063616e20636f6d706c65746520746860008201527f6520636f6e747261637400000000000000000000000000000000000000000000602082015250565b6000610dc6602a83610acb565b9150610dd182610d6a565b604082019050919050565b60006020820190508181036000830152610df581610db9565b9050919050565b7f636f6e7472616374206973206e6f7420617661696c61626c6500000000000000600082015250565b6000610e32601983610acb565b9150610e3d82610dfc565b602082019050919050565b60006020820190508181036000830152610e6181610e25565b9050919050565b7f6f6e6c79206f776e65722063616e2072656c65617365207061796d656e740000600082015250565b6000610e9e601e83610acb565b9150610ea982610e68565b602082019050919050565b60006020820190508181036000830152610ecd81610e91565b9050919050565b7f636f6e7472616374206973206e6f7420636f6d706c657465642062792074686560008201527f2062656e65666963696172790000000000000000000000000000000000000000602082015250565b6000610f30602c83610acb565b9150610f3b82610ed4565b604082019050919050565b60006020820190508181036000830152610f5f81610f23565b9050919050565b7f6f6e6c792062656e65666963696172792063616e2064656d616e642066656573600082015250565b6000610f9c602083610acb565b9150610fa782610f66565b602082019050919050565b60006020820190508181036000830152610fcb81610f8f565b9050919050565b7f636f6e7472616374206973206e6f74207665726966696564206279207468652060008201527f6f776e6572000000000000000000000000000000000000000000000000000000602082015250565b600061102e602583610acb565b915061103982610fd2565b604082019050919050565b6000602082019050818103600083015261105d81611021565b905091905056fea26469706673582212200d345dd34e0a6e02d702ab6e05e3cb7bd395560c20f97464360d8b453ad1a16164736f6c634300080b0033",
  "immutableReferences": {},
  "source": "// SPDX-License-Identifier: MIT\r\npragma solidity >=0.4.22 <0.9.0;\r\n\r\ncontract Escrow {\r\n    uint256 public contractsCount = 0;\r\n\r\n    struct Contract {\r\n        uint256 id;\r\n        address owner;\r\n        address beneficiary;\r\n        uint256 fees;\r\n        bool isCompleted;\r\n        bool isVerified;\r\n    }\r\n\r\n    mapping(uint256 => Contract) private contracts;\r\n    mapping(uint256 => bool) private contractsAvailability;\r\n\r\n    event ContractSuccesfull(\r\n        uint256 indexed id,\r\n        address indexed owner,\r\n        address indexed beneficiary,\r\n        uint256 fees,\r\n        bool isCompleted,\r\n        bool isVerified\r\n    );\r\n\r\n    function createContract(address beneficiary, uint256 amt) external payable {\r\n        require(beneficiary != address(0), \"beneficiary cannot be 0\");\r\n        require(amt > 0, \"amount must be greater than 0\");\r\n        require(amt == msg.value, \"amount must be equal to msg.value\");\r\n\r\n        amt = amt * 10**18;\r\n        contractsCount++;\r\n        contracts[contractsCount] = Contract(\r\n            contractsCount,\r\n            msg.sender,\r\n            beneficiary,\r\n            amt,\r\n            false,\r\n            false\r\n        );\r\n\r\n        contractsAvailability[contractsCount] = true;\r\n\r\n        emit ContractSuccesfull(\r\n            contractsCount,\r\n            msg.sender,\r\n            beneficiary,\r\n            amt,\r\n            false,\r\n            false\r\n        );\r\n    }\r\n\r\n    function completeContract(uint256 id) external {\r\n        require(\r\n            msg.sender == contracts[id].beneficiary,\r\n            \"only beneficiary can complete the contract\"\r\n        );\r\n        require(contractsAvailability[id] == true, \"contract is not available\");\r\n\r\n        contracts[id].isCompleted = true;\r\n    }\r\n\r\n    function verifyContract(uint256 id) external {\r\n        require(\r\n            msg.sender == contracts[id].owner,\r\n            \"only owner can release payment\"\r\n        );\r\n        require(contractsAvailability[id] == true, \"contract is not available\");\r\n        require(\r\n            contracts[id].isCompleted == true,\r\n            \"contract is not completed by the beneficiary\"\r\n        );\r\n\r\n        contracts[id].isVerified = true;\r\n    }\r\n\r\n    function demandFees(uint256 id) external {\r\n        require(\r\n            msg.sender == contracts[id].beneficiary,\r\n            \"only beneficiary can demand fees\"\r\n        );\r\n\r\n        require(contractsAvailability[id] == true, \"contract is not available\");\r\n\r\n        require(\r\n            contracts[id].isCompleted == true,\r\n            \"contract is not completed by the beneficiary\"\r\n        );\r\n\r\n        require(\r\n            contracts[id].isVerified == true,\r\n            \"contract is not verified by the owner\"\r\n        );\r\n\r\n        payable(contracts[id].beneficiary).transfer(\r\n            contracts[id].fees * 10**18\r\n        );\r\n    }\r\n}\r\n",
  "sourcePath": "C:\\Users\\Suman\\Desktop\\Blockchain\\EscrowContract\\EscrowContract\\contracts\\Escrow.sol",
  "compiler": {
    "name": "solc",
    "version": "0.8.11+commit.d7f03943.Emscripten.clang"
  },
  "schemaVersion": "3.4.5",
  "updatedAt": "2022-03-23T14:47:09.593Z",
  "networkType": "ethereum",
  "devdoc": {
    "kind": "dev",
    "methods": {},
    "version": 1
  },
  "userdoc": {
    "kind": "user",
    "methods": {},
    "version": 1
  }
}